{
    "txid": "add8b57d78f62f0e43ed90d7a5a1a21af431bde256dadaca425831b215791635",
    "hash": "add8b57d78f62f0e43ed90d7a5a1a21af431bde256dadaca425831b215791635",
    "version": 1,
    "locktime": 0,
    "vin": [
        {
            "txid": "6c2789243608b46f750f49ff24f6f79a78c3010f7e56951e045e5b7ea5d07bf7",
            "vout": 0,
            "scriptSig": {
                "asm": "",
                "hex": ""
            },
            "sequence": 4294967295
        }
    ],
    "vout": [
        {
            "value": 0.001,
            "n": 0,
            "scriptPubKey": {
                "asm": "OP_DUP OP_HASH160 8fd139bb39ced713f231c58a4d07bf6954d1c201 OP_EQUALVERIFY OP_CHECKSIG",
                "hex": "76a9148fd139bb39ced713f231c58a4d07bf6954d1c20188ac",
                "reqSigs": 1,
                "type": "pubkeyhash",
                "addresses": [
                    "P4uLTWqkeD1QjwNfjLCky4WcVh7UrQUowg5c"
                ]
            }
        }
    ],
    "hex": "0100000001f77bd0a57e5b5e041e95567e0f01c3789af7f624ff490f756fb408362489276c0000000000ffffffff01a0860100000000001976a9148fd139bb39ced713f231c58a4d07bf6954d1c20188ac00000000"
}
