{
    "txid": "3003c78d39efe83ee09c60154a43255788818fea522525ac3958632fc2caa2f7",
    "hash": "3003c78d39efe83ee09c60154a43255788818fea522525ac3958632fc2caa2f7",
    "version": 2,
    "locktime": 0,
    "vin": [
        {
            "txid": "5ee62e3f7757f5fd995b2fa1bdb5b744298146098d5de92959ec4b52dc77191e",
            "vout": 1,
            "scriptSig": {
                "asm": "",
                "hex": ""
            },
            "sequence": 4294967295
        }, 
        {
            "txid": "3cd215c1c6b7ae33bc6266f268fd212b83860e13902b454502ce6d54448e398a",
            "vout": 25,
            "scriptSig": {
                "asm": "",
                "hex": ""
            },
            "sequence": 4294967295
        }, 
        {
            "txid": "0f941395005b80a61726baecebb11d7caa184a1a58246daff7dffca793ab07b8",
            "vout": 12,
            "scriptSig": {
                "asm": "",
                "hex": ""
            },
            "sequence": 4294967295
        }
    ],
    "vout": [
        {
            "value": 12.52,
            "n": 0,
            "scriptPubKey": {
                "asm": "OP_DUP OP_HASH160 8fd139bb39ced713f231c58a4d07bf6954d1c201 OP_EQUALVERIFY OP_CHECKSIG",
                "hex": "76a9148fd139bb39ced713f231c58a4d07bf6954d1c20188ac",
                "reqSigs": 1,
                "type": "pubkeyhash",
                "addresses": [
                    "P4uLTWqkeD1QjwNfjLCky4WcVh7UrQUowg5c"
                ]
            }
        }, 
        {
            "value": 0.01000487,
            "n": 1,
            "scriptPubKey": {
                "asm": "OP_DUP OP_HASH160 6c772e9cf96371bba3da8cb733da70a2fcf20078 OP_EQUALVERIFY OP_CHECKSIG",
                "hex": "76a9146c772e9cf96371bba3da8cb733da70a2fcf2007888ac",
                "reqSigs": 1,
                "type": "pubkeyhash",
                "addresses": [
                    "P4uHEbKiFKXmCxSeB5vNntyK7gvkrCFt7fo9"
                ]
            }
        }
    ],
    "hex": "02000000031e1977dc524bec5929e95d8d0946812944b7b5bda12f5b99fdf557773f2ee65e0100000000ffffffff8a398e44546dce0245452b90130e86832b21fd68f26662bc33aeb7c6c115d23c1900000000ffffffffb807ab93a7fcdff7af6d24581a4a18aa7c1db1ebecba2617a6805b009513940f0c00000000ffffffff020001a04a000000001976a9148fd139bb39ced713f231c58a4d07bf6954d1c20188ac27440f00000000001976a9146c772e9cf96371bba3da8cb733da70a2fcf2007888ac00000000"
}
