{
    "txid": "2c27380d2406eda60cf0d4a256badde7401dea7310e6c65314e153e2851b2e7c",
    "hash": "2c27380d2406eda60cf0d4a256badde7401dea7310e6c65314e153e2851b2e7c",
    "version": 1,
    "locktime": 0,
    "vin": [
        {
            "txid": "69e9c12d30a6cd598a31ddfcaabeb9d9f0baf8938bf0ba6610beb04f589cc5ef",
            "vout": 0,
            "scriptSig": {
                "asm": "",
                "hex": ""
            },
            "sequence": 4294967295
        }
    ],
    "vout": [
        {
            "value": 0.002,
            "n": 0,
            "scriptPubKey": {
                "asm": "OP_DUP OP_HASH160 8fd139bb39ced713f231c58a4d07bf6954d1c201 OP_EQUALVERIFY OP_CHECKSIG",
                "hex": "76a9148fd139bb39ced713f231c58a4d07bf6954d1c20188ac",
                "reqSigs": 1,
                "type": "pubkeyhash",
                "addresses": [
                    "P4uLTWqkeD1QjwNfjLCky4WcVh7UrQUowg5c"
                ]
            }
        }, 
        {
            "value": 4.00,
            "n": 1,
            "scriptPubKey": {
                "asm": "OP_RETURN 54686973204f505f52455455524e207472616e73616374696f6e206f7574707574207761732063726561746564206279206d6f646966696564206372656174657261777472616e73616374696f6e2e",
                "hex": "6a4c4f54686973204f505f52455455524e207472616e73616374696f6e206f7574707574207761732063726561746564206279206d6f646966696564206372656174657261777472616e73616374696f6e2e",
                "type": "nulldata"
            }
        }
    ],
    "hex": "0100000001efc59c584fb0be1066baf08b93f8baf0d9b9beaafcdd318a59cda6302dc1e9690000000000ffffffff02400d0300000000001976a9148fd139bb39ced713f231c58a4d07bf6954d1c20188ac0084d71700000000526a4c4f54686973204f505f52455455524e207472616e73616374696f6e206f7574707574207761732063726561746564206279206d6f646966696564206372656174657261777472616e73616374696f6e2e00000000"
}
