{
    "txid": "0eaee57ba31a6608b934e02f2ab359471707b39141ed173a7483cd2f700a97a7",
    "hash": "0eaee57ba31a6608b934e02f2ab359471707b39141ed173a7483cd2f700a97a7",
    "version": 2,
    "locktime": 0,
    "vin": [
        {
            "txid": "69e9c12d30a6cd598a31ddfcaabeb9d9f0baf8938bf0ba6610beb04f589cc5ef",
            "vout": 0,
            "scriptSig": {
                "asm": "",
                "hex": ""
            },
            "sequence": 4294967293
        }
    ],
    "vout": [
        {
            "value": 0.002,
            "n": 0,
            "scriptPubKey": {
                "asm": "OP_DUP OP_HASH160 8fd139bb39ced713f231c58a4d07bf6954d1c201 OP_EQUALVERIFY OP_CHECKSIG",
                "hex": "76a9148fd139bb39ced713f231c58a4d07bf6954d1c20188ac",
                "reqSigs": 1,
                "type": "pubkeyhash",
                "addresses": [
                    "P4uLTWqkeD1QjwNfjLCky4WcVh7UrQUowg5c"
                ]
            }
        }
    ],
    "hex": "0200000001efc59c584fb0be1066baf08b93f8baf0d9b9beaafcdd318a59cda6302dc1e9690000000000fdffffff01400d0300000000001976a9148fd139bb39ced713f231c58a4d07bf6954d1c20188ac00000000"
}
